:020000040000FA
:040000008031202803
:100008007E14803164008731152780314E019010AD
:100018000130F20072084001AF0710302F02031CB4
:10002800162817281E280130A9070030AA3DAF015D
:10003800AE01AE0A7E1009008531502DF430400122
:1000480092007E01B801B901400193017E01C3010C
:10005800400194017E01CE0140018E01FF307E01F6
:10006800D0008030400195008F017E01D901DA1758
:10007800400196017E01E401E515603051018D00D3
:100088000630930008004001B001B101731C4D28EF
:100098004E28532875084001B0077608B13D013055
:1000A800F535F60D890B54280130F436F30C890B1D
:1000B800592873087404031D622863284A284001DC
:1000C8003108F4003008F300080040013208300716
:1000D800B4003308313DB5008031C520803140017E
:1000E80035087402031D7A283408730203187D2822
:1000F8007E28802800308128013008004001B000A7
:100108008030F3000F30F4008031DA208031803005
:10011800F3000F30F40040013008F7007708F500CD
:10012800F6018031B020803108004001B000C030B5
:10013800F3000F30F4008031DA208031C030F30052
:100148000F30F40040013008F7007708F500F60199
:100158008031B020803108008B13730850019A0059
:1001680074089B0075089C001E13760C031C9E12D5
:1001780003189E161E121E158031F62080318B172B
:100188000800CA282A08F6002908F50040012A08AC
:100198007606031DD12829087506031DD428D528FD
:1001A800C6287608F4007508F30008008B13730856
:1001B80050019A0074089B001E131E161E158031EC
:1001C800F620803150011E118B1708007D30450143
:1001D8008D009C308E00013090008F014E019A14E2
:1001E8000B1708008B13500155309F00AA309F0051
:1001F8009E14000000008B17080064008001013184
:06020800890B02290034FD
:100A00003E344534493451343E34013421347F344A
:100A100001340134213443344534493431344234CF
:100A200041345134693446340C34143424347F3422
:100A3000043472345134513451344E341E34293418
:100A400049344934063440344734483450346034EF
:100A500036344934493449343634303449344934ED
:100A60004A343C343F344434443444343F347F3497
:100A700049344934493436343E34413441344134C4
:100A800022347F344134413422341C347F3449349D
:100A90004934493441347F3448344834483440344C
:100AA000F801F901203084000030850010308131D8
:100AB000012185317E10400187318C2FBA2D901D88
:100AC000622D632D642DC62D8031C52085317408BB
:100AD0004001A6007308A500AB01AB0AC62D26088D
:100AE000B1002508B0001F30B2000030B3008031E3
:100AF00069208531003A031D7E2D7F2D802DC62D66
:100B00007A080319842D852D882D0130FA028C2D49
:100B10000230F7007708FA000230F700770840014A
:100B2000AB00C62D901D952D962DA92D2608B10040
:100B30002508B0003730B2000030B30080316920A2
:100B40008531003A0319A52DA62DC62D4001AB0114
:100B5000C62D2608B1002508B0007F30B200003055
:100B6000B300803169208531003A0319B82DB92DC1
:100B7000C62DA62D40012B08003A03195F2D013A1E
:100B800003196F2D033A0319922D5F2D7A08031D67
:100B9000CA2DCB2DCE2D40011010D02D40011014A8
:100BA00002307A06031DD52DD62DD82D9010D92DC3
:100BB00090147A03031DDD2DDE2DE02D8C11E12D27
:100BC0008C157A08031DE52DE62DE82D0C108C10F0
:100BD0007A03031DEC2DED2DEF2D0C108C1402303B
:100BE0007A06031DF42DF52DF72D0C148C1008003A
:100BF00040010C08B2003208F700F709F70E0F3079
:100C0000F7057708B200B3013208F3003308F400A7
:100C10000530F5000030F60080314720853174083A
:100C2000850073088400003084078530853D000806
:100C30004001B4003408A0007708B200B3013208C4
:100C4000F3003308F4000530F5000030F600803181
:100C500047208531740885007308840001308407BB
:100C60008530853D00084001B4003408A1007708B4
:100C7000B200B3013208F3003308F4000530F50088
:100C80000030F600803147208531740885007308F4
:100C90008400023084078530853D00084001B4009F
:100CA0003408A2007708B200B3013208F300330819
:100CB000F4000530F5000030F60080314720853122
:100CC0007408850073088400043084078530853DEE
:100CD00000084001B4003408A3007708B200B30153
:100CE0003208F3003308F4000530F5000030F60058
:100CF00080314720853174088500730884000330F3
:100D000084078530853D00084001B4003408A40004
:100D10000800E42E8F1F8D2E8E2E8F2EF02E803108
:100D2000C520863174084001A8007308A700AC01F3
:100D3000AC0AF02E2808B1002708B0001F30B2001E
:100D40000030B300803169208631003A031DA92E9E
:100D5000AA2EAB2EF02E01304001B6003608BB079C
:100D600008303B02031CB52EB62EB72EBB01023055
:100D7000B6003608AC00F02E8F1FBF2EC02ED32E2B
:100D80002808B1002708B0003730B2000030B300A7
:100D9000803169208631003A0319CF2ED02EF02EF3
:100DA0004001AC01F02E2808B1002708B0007F30C8
:100DB000B2000030B300803169208631003A031957
:100DC000E22EE32EF02ED02E40012C08003A03191B
:100DD0008A2E013A03199A2E033A0319BC2E8A2E41
:100DE00001304001B6003B0AF62EB635890BF52ED0
:100DF0003608FF3AB7003708F70077088E003B192E
:100E0000022F032F052F1015062F1011BB18092FC5
:100E10000A2F0C2F0D170D2F0D133B18102F112F0C
:100E2000132F8D17142F8D1308000130F8020310B3
:100E3000F90C7908031D1D2F1E2F262F1030F000EE
:100E40007008F9000430F0007008F80040010D0847
:100E5000F0007008F100E030F0007008F105710852
:100E60008D007808203E86008701011B382F3B2F1C
:100E700040010F143D2F40010F107808203E8600DE
:100E80008701811A442F472F40018F14492F4001B9
:100E90008F107808203E86008701011A502F532FAB
:100EA00040010F15552F40010F117808203E860094
:100EB000870181195C2F5F2F40018F15612F400141
:100EC0008F117808203E860087010119682F6B2F4B
:100ED00040010F166D2F40010F127808203E86004A
:100EE00087018118742F772F40018F16792F4001C9
:100EF0008F127808203E860087010118802F832FEB
:100F000040010F17852F40010F137908F00070087A
:100F1000F10471088D000800803122208731803172
:100F2000EA2087318731CA2787318B177A08400139
:100F3000B8003808BA003B08B8003808B9002E08D5
:100F40000319A32FA42F9F2FAE018531F8258731D8
:100F500086318926873185315E2587318731F627AD
:100F6000873140013A087A060319B72FB82FBC2FF2
:100F70007A08803182208731400139083B06031905
:100F8000C22FC32F962F3B08803199208731962F8F
:100F900080312028803084008F3085000008400197
:100FA000B1003108FA00C03084008F30850000089D
:100FB000B1003108BB0003307A02031CE02FE12F9F
:100FC000E62FFA010030803182208731083040015D
:100FD0003B02031CEC2FED2FF52F0230B10031083E
:100FE000BB000230803199208731080040010C1D80
:0E0FF000FA2FFB2FFD2F8D16FE2F8D120800FD
:021F00000034AB
:021F800000342B
:020000040001F9
:08000E00EC3F3E3FFF3FF51EF1
:00000001FF
